:020000040000FA
:06000000D1EF1EF012001A
:020006001200E6
:08000800DACFE4FFE2CFDAFFDA
:10001000E652F2A408D0010E0001686F696B6A2BEA
:10002000000E6B23F29400D0E552E5CFDAFF110009
:1000300002001E3E0000600000000D0000001C3E9B
:0A004000000077000000020000003D
:06004A00D9CFE6FFE1CF73
:10005000D9FF130EE126010EDB6A020EDB6A030EE6
:10006000DB6A040EDB6A050EDB6A060EDB6A070E2E
:10007000DB6A080EDB6A090EDB6A0A0EDB6A0B0E0E
:10008000DB6A0C0EDB6A0D0EDB6A0E0EDB6A0F0EEE
:10009000DB6A100EDB6A110EDB6A120EDB6AF250AD
:1000A000800B01E0010EDF6EF29E010EDB6A020E94
:1000B000DB6A010EDBCF14F0020EDBCF15F0D89017
:1000C000155004E6000E145C040E155801E378D0B8
:1000D0008F0EE66EA8EC1EF0E5520BEC1FF006EC5E
:1000E0001FF0000901E0FBD7EDEC1EF0F3CF14F098
:1000F000F4CF15F0166A176A15AE02D016681768A5
:100100000B0E14C0DBFF0C0E15C0DBFF0D0E16C06E
:10011000DBFF0E0E17C0DBFF870EE66EA8EC1EF0AD
:10012000E5520BEC1FF006EC1FF0000901E0FBD7D5
:10013000EDEC1EF0F3CF14F0F4CF15F0166A176A49
:1001400015AE02D016681768070E14C0DBFF080E44
:1001500015C0DBFF090E16C0DBFF0A0E17C0DBFF60
:10016000070EDBCF18F0080EDBCF19F0090EDBCF3E
:100170001AF00A0EDBCF1BF0D9500B0FE96EDACF65
:10018000EAFFEE50185C146EEE501958156EEE50E2
:100190001A58166EEE501B58176ED9500F0FE96E95
:1001A000DACFEAFF1450EE261550EE221650EE225A
:1001B0001750EE22010EDB2A020E01E3DB2A79D76B
:1001C000DF50E8B0F28EE8A0F29ED9500F0FE96E32
:1001D000DACFEAFF030EEECFDBFF040EEECFDBFF3C
:1001E000050EEECFDBFF060EEECFDBFF030EDBCFFF
:1001F0001CF0040EDBCF1DF0050EDBCF1EF0060E4B
:10020000DBCF1FF01CC004F01DC005F01EC006F0BF
:100210001FC007F012EC15F005C018F006C019F069
:1002200007C01AF008C01BF0CD0E0A6E3B0E0B6E15
:10023000AE0E0C6E3E0E0D6E18C005F019C006F025
:100240001AC007F01BC008F0C2EC15F005C014F08E
:1002500006C015F007C016F008C017F00A6A0B6A4E
:10026000EB0E0C6E430E0D6E14C005F015C006F0BB
:1002700016C007F017C008F02CEC15F05EEC16F075
:10028000030E04C0DBFF040E05C0DBFF050E06C035
:10029000DBFF060E07C0DBFF030EDBCF05F0040E0D
:1002A000DBCF06F0050EDBCF07F0060EDBCF08F044
:1002B0000834000E081809E6D880400E05549C0E3C
:1002C0000654000E0754000E085413E3D950030FD0
:1002D000E96EDACFEAFFD880030EEB50FF0A08E69A
:1002E000C00EEE5C630EEE58FF0EEE58FF0EEE5899
:1002F00010E2E66A030EDBCFE6FF040EDBCFE6FF7B
:10030000E668020EE66E42EC08F0146E050EE15E41
:100310001450030EDBCF14F0040EDBCF15F0050EE6
:10032000DBCF16F0060EDBCF17F014C004F015C0BB
:1003300005F016C006F017C007F0130EE15C03E2EB
:1003400000D0E16AE552E16EE552E7CFD9FF120035
:10035000D9CFE6FFE1CFD9FF0F0EE126DF6AD950F2
:100360000A0FE66E000EDA20E66ED950090FE66E2F
:10037000000EDA20E66ED950010FE66E000EDA208C
:10038000E66ED9500B0FE66E000EDA20E66EDFEC5B
:1003900011F0146E080EE15E1450DF6EDF043CE1D4
:1003A000D9500B0FE96EDACFEAFF030EEE1805E124
:1003B000EE5003E1EE5001E1EE500EE1E66A000E70
:1003C000E66EE66AE6680B0EDBCFE6FF42EC08F06D
:1003D000146E050EE15E1450D9500A0FE66E000E41
:1003E000DA20E66ED950090FE66E000EDA20E66ECE
:1003F000D950010FE66E000EDA20E66ED9500B0FD1
:10040000E66E000EDA20E66EDFEC11F0146E080ED8
:10041000E15E1450DF6EC2D70F0EE15C03E200D044
:10042000E16AE552E16EE552E7CFD9FF1200D9CF7C
:10043000E6FFE1CFD9FF200EE126DE6ADD6A020E7B
:10044000DB6A030EDB6A040EDB6A0F0EDB6A100E3A
:10045000DB6A110EDB6A120EDB6A170EDB6A180EFE
:10046000DB6A190EDB6A1A0EDB6A1B0EDB6A1C0ED6
:10047000DB6A1D0EDB6ADE6ADD6ADECF14F0DDCFDB
:1004800015F0FA0EDB50000115AE02D0D89003D063
:10049000145C000E155801E34BD2E80EF36E1E0EED
:1004A000F3CFDBFF030EF36E1F0EF3CFDBFF190E4E
:1004B000DB6A1A0EDB6ADECF14F0DDCF15F0D890C0
:1004C00014361536D89014361536010E1412000E57
:1004D0001512166A176A15AE02D016681768130E41
:1004E00014C0DBFF140E15C0DBFF150E16C0DBFFBA
:1004F000160E17C0DBFF0F0EDBCF14F0100EDBCF94
:1005000015F0110EDBCF16F0120EDBCF17F0D9501D
:10051000130FE96EDACFEAFF1450EE1809E1155017
:10052000EE1806E11650EE1803E11750EE1800E140
:1005300001E1EED0170EDB6A180EDB6AE80EF36EEF
:100540001E0EF3CFDBFF030EF36E1F0EF3CFDBFFA8
:10055000E66AE66A000EE66EE66A130EDBCF14F07A
:10056000140EDBCF15F0150EDBCF16F0160EDBCF19
:1005700017F0158014C0E6FF15C0E6FF16C0E6FFB1
:1005800017C0E6FF8AEC10F0186E080EE15E1850F6
:1005900000093EE1D9501E0FE96EDACFEAFFEE50B6
:1005A000ED1036E01E0EDB061F0E01E2DB06020E2A
:1005B000DB6A030EDB6A020EDBCF14F0030EDBCF27
:1005C00015F0D890155004E6320E145C000E155844
:1005D00006E2020EDB2A030E01E3DB2AECD7020E51
:1005E000DB6A030EDB6A020EDBCF14F0030EDBCFF7
:1005F00015F0D890155004E6320E145C000E155814
:1006000006E2020EDB2A030E01E3DB2AECD7A0D7B9
:10061000D9500E0FE66E000EDA20E66ED9500D0F9F
:10062000E66E000EDA20E66ED950050FE66E000E7B
:10063000DA20E66ED9500F0FE66E000EDA20E66E75
:10064000DFEC11F0146E080EE15E1450000931E188
:10065000D950170FE96EDACFEAFFC80ED880EE54F2
:10066000000EED5426E3D9501E0FE96EDACFEAFFF3
:10067000EE50ED101EE01E0EDB061F0E01E2DB0643
:10068000020EDB6A030EDB6A020EDBCF14F0030EF0
:10069000DBCF15F0D890155004E6640E145C000E04
:1006A000155806E2020EDB2A030E01E3DB2AECD723
:1006B000AFD7190EDB2A1A0E01E3DB2A190EDBCFA6
:1006C00014F01A0EDBCF15F0060E145C000E155850
:1006D0001EE3970E146E380E156E166A14C0E6FFF0
:1006E00015C0E6FF16C0E6FFB0EC1CF0E552E5527F
:1006F000E552E66A000EE66EE66ADFCFE6FF010E1F
:10070000E66E42EC08F0146E050EE15E1450F3D66E
:100710000D0EDB50030801E0A7D0D950050FE66E9F
:10072000000EDA20E66ED9501B0FE66E000EDA20BE
:10073000E66ED5DAE552E552E552E552070EDB509A
:10074000E76E1D0EE7CFDBFFDECF14F0DDCF15F037
:10075000D89014361536FD0EDB501424E96EFE0ECB
:10076000DB501520EA6E1B0EDBCFEEFF1C0EDBCF3D
:10077000EDFFFB0EDBCF14F0FC0EDBCF15F0DE50EF
:100780001424E96EDD501520EA6E1D0EDBCFEFFF5D
:10079000F29E1B0EDBCFE6FF1C0EDBCFE6FFDECFAB
:1007A000E6FFDDCFE6FF8A0E146E380E156E166A70
:1007B00014C0E6FF15C0E6FF16C0E6FFB0EC1CF063
:1007C000176E070EE15E17501D0EDBCFE6FFE66ADF
:1007D000DECFE6FFDDCFE6FF7B0E146E380E156E22
:1007E000166A14C0E6FF15C0E6FF16C0E6FFB0ECBF
:1007F0001CF0176E070EE15E1750F28E1B0EDBCF5A
:1008000014F01C0EDBCF15F0A80E145C610E155809
:1008100017E31B0EDBCF16F01C0EDBCF17F0186AA8
:100820001834000E181807E6D880880E1654900E5B
:100830001754000E185404E31D0EDB502F0813E26A
:100840001D0EDBCFE6FF1B0EDBCFE6FF1C0EDBCF62
:10085000E6FFDFCFE6FF010EE66E42EC08F0146E15
:10086000050EE15E14501DD0600E146E380E156E2C
:10087000166A14C0E6FF15C0E6FF16C0E6FFB0EC2E
:100880001CF0E552E552E552E66A000EE66EE66AB5
:10089000DFCFE6FF010EE66EF5DB146E050EE15EBE
:1008A00014500001685169113EE08350200B3BE079
:1008B00025EC00F004C064F005C065F006C066F0E9
:1008C00007C067F064C0E6FF65C0E6FF66C0E6FFEC
:1008D00067C0E6FF570E146E380E156E166A14C008
:1008E000E6FF15C0E6FF16C0E6FFB0EC1CF0176E81
:1008F000070EE15E1750E66A040EE66E640EE66EC1
:10090000000EE66E010EE66EE66EE66AE66A8AECB8
:1009100010F0146E080EE15E1450000901E1EBD7EF
:100920000001686B696BDF2A010E01E3DB2AA5D5A4
:10093000200EE15C03E200D0E16AE552E16EE5528F
:10094000E7CFD9FF1200D9CFE6FFE1CFD9FF150ECF
:10095000E126DF6A0B0EDB6A0C0EDB6A0D0EDB6A2A
:100960000E0EDB6AFB0EDBCFE9FFFC0EDBCFEAFFEE
:10097000EF50146E156AD89014361536D890143688
:1009800015360F0E14C0DBFF100E15C0DBFF500E26
:10099000F36E110EF3CFDBFFC30EF36E120EF3CF27
:1009A000DBFFFB0EDBCFE9FFFC0EDBCFEAFF130E14
:1009B000EFCFDBFF140EDB6AFA0EDB50F36E140E82
:1009C000DBCFF4FFF350F45C3AE2140E176ADB3429
:1009D000FE0B1736166EFD0EDB501624E96EFE0E6A
:1009E000DB501720EA6EEECF14F0EFCF15F0110EAA
:1009F000DBCF18F0120EDBCF19F01850145C195031
:100A000015581AE2140E156ADB34FE0B1536146EF7
:100A1000FD0EDB501424E96EFE0EDB501520EA6E4D
:100A2000110EEECFDBFF120EEDCFDBFF140EDB500D
:100A3000E76E130EE7CFDBFF140EDB2ABDD7FB0EEC
:100A4000DBCFE9FFFC0EDBCFEAFFEF50146E156A37
:100A5000FF0E141801E1155064E00F0EDBCF14F007
:100A6000100EDBCF15F0020E1412000E1512166ACE
:100A7000176AD9500B0FE96EDACFEAFFEE5014185F
:100A800009E1EE50151806E1EE50161803E1EE509C
:100A9000171800E146E0E66A010EE66ED9CFE6FFE0
:100AA000DACFE6FF0F0EDBCF14F0100EDBCF15F020
:100AB000020E1412010E1512166A176A14C0E6FF10
:100AC00015C0E6FF16C0E6FF17C0E6FF8AEC10F07F
:100AD000186E080EE15E1850000901E1DCD7D9500C
:100AE0000A0FE66E000EDA20E66ED950090FE66EA8
:100AF000000EDA20E66ED950010FE66E000EDA2005
:100B0000E66ED9500B0FE66E000EDA20E66EDFECD3
:100B100011F0146E080EE15E1450000901E1DFD7F8
:100B20009CD7110EDBCF14F0120EDBCF15F0166A36
:100B3000D8901650000A06E6D00E145C840E1558A4
:100B4000000E165801E387D0130EDB50146E156AA1
:100B5000D89014361536D890143615360F0E14C0AA
:100B6000DBFF100E15C0DBFF0B0EDB6A0C0EDB6A21
:100B70000D0EDB6A0E0EDB6ADF680F0EDBCF14F0A2
:100B8000100EDBCF15F0020E1412000E1512166AAD
:100B9000176AD9500B0FE96EDACFEAFFEE5014183E
:100BA00009E1EE50151806E1EE50161803E1EE507B
:100BB000171800E146E0E66A010EE66ED9CFE6FFBF
:100BC000DACFE6FF0F0EDBCF14F0100EDBCF15F0FF
:100BD000020E1412010E1512166A176A14C0E6FFEF
:100BE00015C0E6FF16C0E6FF17C0E6FF8AEC10F05E
:100BF000186E080EE15E1850000901E1DCD7D950EB
:100C00000A0FE66E000EDA20E66ED950090FE66E86
:100C1000000EDA20E66ED950010FE66E000EDA20E3
:100C2000E66ED9500B0FE66E000EDA20E66EDFECB2
:100C300011F0146E080EE15E1450000901E1DFD7D7
:100C40009CD7FB0EDBCFE9FFFC0EDBCFEAFF130ED8
:100C5000DBCFEFFF07D0FB0EDBCFE9FFFC0EDBCFD6
:100C6000EAFFEF68FB0EDBCFE9FFFC0EDBCFEAFF0C
:100C7000EF50E66EE66A4E0E146E380E156E166A6A
:100C800014C0E6FF15C0E6FF16C0E6FFB0EC1CF08E
:100C9000176E050EE15E1750E66A010EE66EFB0E5A
:100CA000DBCFE6FFFC0EDBCFE6FF030EE66E010EA8
:100CB000E66EE66AE66A8AEC10F0146E080EE15EF3
:100CC0001450000901E1E8D7150EE15C03E200D001
:100CD000E16AE552E16EE552E7CFD9FF1200D9CFC4
:100CE000E6FFE1CFD9FFFB0EDBCFE9FFFC0EDBCF48
:100CF000EAFFEF50E66EFD0EDBCFE9FFFE0EDBCF25
:100D0000EAFFE552E750EF6E010EE76EFB0EDBCF18
:100D1000E9FFFC0EDBCFEAFFE750E926000EEA22EE
:100D2000EF50E66E010EE76EFD0EDBCFE9FFFE0E23
:100D3000DBCFEAFFE750E926000EEA22E552E75052
:100D4000EF6E00D0E552E7CFD9FF1200D9CFE6FF12
:100D5000E1CFD9FF030EE126DF6A010EDB6A020E46
:100D6000DB6ADB6AFC0EDB50F36E020EDBCFF4FFB6
:100D7000F350F45C45E2020E186ADB34FE0B1836C1
:100D8000176EFD0EDB501724E96EFE0EDB501820A7
:100D9000EA6EEECF14F0EFCF15F0166AD890165029
:100DA000000A06E6640E145C960E1558000E1658DE
:100DB00002E3010EDF6E020E186ADB34FE0B1836FA
:100DC000176EFD0EDB501724E96EFE0EDB50182067
:100DD000EA6EEECF14F0EFCF15F0166A1634000E5F
:100DE000161807E6D880440E1454930E1554000EBE
:100DF000165403E3DE52010EDD6E020EDB2AB2D77B
:100E0000DF0407E1FB0EDB0404E18B84FB0EDB6AED
:100E10000CD0010EDB0409E1FB0EDB5006E18B94E4
:100E2000010EF36EFB0EF3CFDBFFFB0EDB50146EF7
:100E3000030EE15C03E200D0E16AE552E16E14507A
:100E4000E552E7CFD9FF1200D9CFE6FFE1CFD9FFB6
:100E50000B0EE126500EDE6EC30EDD6E020EDB6A57
:100E6000FC0EDB50F36E020EDBCFF4FFF350F45CAC
:100E700030E2020E176ADB34FE0B1736166EFD0EDB
:100E8000DB501624E96EFE0EDB501720EA6EEECF23
:100E900014F0EFCF15F0DECF18F0DDCF19F01850B9
:100EA000145C1950155812E2020E156ADB34FE0B61
:100EB0001536146EFD0EDB501424E96EFE0EDB5069
:100EC0001520EA6EEECFDEFFEDCFDDFF020EDB2A4E
:100ED000C7D7DECF14F0DDCF15F0030E14C0DBFF53
:100EE000040E15C0DBFF050EDB6A060EDB6A030E7F
:100EF000DBCF1CF0040EDBCF1DF0050EDBCF1EF0A8
:100F0000060EDBCF1FF01CC004F01DC005F01EC094
:100F100006F01FC007F0030EDBCF09F0040EDBCF95
:100F20000AF0050EDBCF0BF0060EDBCF0CF083ECE6
:100F30001DF000C018F001C019F002C01AF003C083
:100F40001BF0050E096E0A6A0B6A0C6A18C004F0E1
:100F500019C005F01AC006F01BC007F083EC1DF0A5
:100F600000C018F001C019F002C01AF003C01BF055
:100F7000A00E096E860E0A6E010E0B6E0C6A18C06A
:100F800004F019C005F01AC006F01BC007F051ECC0
:100F90001EF004C018F005C019F006C01AF007C012
:100FA0001BF0030EDBCF04F0040EDBCF05F0050EC3
:100FB000DBCF06F0060EDBCF07F0020E096E0A6AE1
:100FC0000B6A0C6A83EC1DF00050185C146E015023
:100FD0001958156E02501A58166E03501B58176E8A
:100FE000200E14264E0E1522000E16221722070E72
:100FF00014C0DBFF080E15C0DBFF090E16C0DBFFB7
:101000000A0E17C0DBFF070EDBCF04F0080EDBCFA4
:1010100005F0090EDBCF06F00A0EDBCF07F0200E3D
:10102000096E010E0A6E0B6A0C6A83EC1DF0070E46
:1010300000C0DBFF080E01C0DBFF090E02C0DBFFB2
:101040000A0E03C0DBFF070EDBCF14F0080EDBCF68
:1010500015F0090EDBCF16F00A0EDBCF17F014C027
:1010600004F015C005F016C006F017C007F00B0E0F
:10107000E15C03E200D0E16AE552E16EE552E7CFC0
:10108000D9FF1200D9CFE6FFE1CFD9FF070EE12645
:10109000DE6ADD6A020EDB6AD950FB0FE66EFF0ED8
:1010A000DA20E66ED950040FE66E000EDA20E66E06
:1010B00016DEE552E552E552E552FD0EDB50E76ED5
:1010C000030EE7CFDBFFFA0EDB50E76E060EE7CF2D
:1010D000DBFFE66A040EE66ED950030FE66E000EE3
:1010E000DA20E66E030EE66E010EE66EE66AE66A4A
:1010F0008AEC10F0146E080EE15E1450000901E154
:10110000E8D7E66A010EE66ED950020FE66E000ED1
:10111000DA20E66EFD0EDB50040DF350146E156AF6
:10112000020E1412010E1512166A176A14C0E6FF99
:1011300015C0E6FF16C0E6FF17C0E6FF8AEC10F008
:10114000186E080EE15E1850000901E1DAD73A0E78
:10115000146E380E156E166A14C0E6FF15C0E6FF51
:1011600016C0E6FFB0EC1CF0E552E552E552FD0E6C
:10117000DBCFE6FFE66A2C0E146E380E156E166A8B
:1011800014C0E6FF15C0E6FF16C0E6FFB0EC1CF089
:10119000176E050EE15E1750FB0EDBCFE6FFFC0E6F
:1011A000DBCFE6FF200E146E380E156E166A14C0E3
:1011B000E6FF15C0E6FF16C0E6FFB0EC1CF0176EA8
:1011C000050EE15E1750FA0EDBCFE6FFE66A120E5F
:1011D000146E380E156E166A14C0E6FF15C0E6FFD1
:1011E00016C0E6FFB0EC1CF0176E050EE15E17505E
:1011F000FE0EDB042BE1FD0EDBCFE6FFFE0EDB5027
:10120000400DF350E552E714E66EE66A39EC1EF045
:10121000E552E552040EDBCFE6FF010EE66E39EC37
:101220001EF0E552E552050EDBCFE6FF020EE66E3C
:1012300039EC1EF0E552E552FA0EDBCFE6FF030E65
:10124000E66E39EC1EF0E552E5522FD0FE0EDB5073
:1012500002081DE1FE0EDB50400DF350E66EE66A1B
:1012600039EC1EF0E552E552040EDBCFE6FF010E2D
:10127000E66E39EC1EF0E552E552050EDBCFE6FFD7
:10128000020EE66E39EC1EF0E552E5520ED0FE0E6F
:10129000DB5003080AE1FE0EDB50400DF350E66E12
:1012A000E66A39EC1EF0E552E552DE6ADD6ADECF11
:1012B00014F0DDCF15F0E80E145C030E155805E2AE
:1012C000DF2A010E01E3DB2AF2D78B848B8683A40D
:1012D0003BD0FE0EDB0407E18B70E66A91EC1EF05A
:1012E000E552FAD731D0FE0EDB50020810E18B70C8
:1012F000E66A91EC1EF0E5528B70E66A91EC1EF006
:10130000E552E66A91EC1EF0E552F1D71DD0FE0ED3
:10131000DB50030803E18B90FED716D08B70DE6A9A
:10132000DD6ADECF14F0DDCF15F0140E145C000E74
:10133000155809E2E66A91EC1EF0E552DF2A010E2B
:1013400001E3DB2AEED7EAD7070EE15C03E200D027
:10135000E16AE552E16EE552E7CFD9FF1200D9CF3D
:10136000E6FFE1CFD9FFD950FB0FE96EFF0EDA207F
:10137000EA6EEECFE6FFEECFE6FFEECFE6FFEFCF71
:10138000E6FF570E146E380E156E166A14C0E6FF8F
:1013900015C0E6FF16C0E6FFB0EC1CF0176E070E96
:1013A000E15E1750E66A040EE66ED950FB0FE66E5A
:1013B000FF0EDA20E66E010EE66EE66EE66AE66A7B
:1013C0008AEC10F0146E080EE15E1450000901E181
:1013D000E9D7E66A010EE66ED950FA0FE66EFF0E07
:1013E000DA20E66E030EE66E010EE66EE66AE66A47
:1013F0008AEC10F0146E080EE15E1450000901E151
:10140000E8D7E66A040EE66ED950F60FE66EFF0ED8
:10141000DA20E66E010EE66E030EE66EE66AE66A16
:101420008AEC10F0146E080EE15E1450000901E120
:10143000E8D7FA0EDBCFE6FFE66A4E0E146E380EE2
:10144000156E166A14C0E6FF15C0E6FF16C0E6FF6B
:10145000B0EC1CF0176E050EE15E175000D0E5529F
:06146000E7CFD9FF1200E6
:0A1466006FEC0FF0FB0EDBCFF3FF7D
:10147000DB06F35000090AE0BDEC0FF0FA0E28EC91
:1014800010F0F3E1151CF1E1010E01D0000E9EEF0A
:101490000FF06FEC0FF03B0EE12402E3E168E6523F
:1014A000E16E010EDB6A020EDB6AF90EDBCFF6FF9E
:1014B000FA0EDBCFF7FFFB0EDBCFF8FF0800F5508D
:1014C000DF6EDF5002E1C2EF0EF0250EDF5C02E0BE
:1014D000B5EF0EF0030EDB6A040EDB6A050EDB6A65
:1014E000060EDB6A070EDB6AD7EC0EF02D0EDF5C12
:1014F0000CE02B0EDF5C09E0200EDF5C06E0230E23
:10150000DF5C03E0300EDF5C1AE1DF50300A14E0EC
:10151000130A0FE0030A0AE00B0A05E0060AE4E1F9
:10152000030EDB80E1D7030EDB82DED7030EDB8404
:10153000DBD7030EDB86D8D7030EDB88D5D72A0E80
:10154000DF5C1BE1D3EC0EF021EC0FF010E0030E9A
:10155000DB8006680768130EDBCF0BF0140EDBCFC1
:101560000CF01BEC17F0040E04C0DBFF03D0130ECD
:101570000AEC0FF0D7EC0EF00BD0090EDB6A78EC1A
:101580000FF003E0ECEC0FF0FAD7090E0AEC0FF0C5
:10159000030EDBB0DB982E0EDF5C1BE1D7EC0EF008
:1015A0002A0EDF5C0BE1D3EC0EF021EC0FF003E12F
:1015B000130E5CEC0FF0D7EC0EF00BD0090EDB6ACB
:1015C00078EC0FF003E0ECEC0FF0FAD7090E5CECCE
:1015D0000FF0680EDF5C07E1D7EC0EF0680EDF5C01
:1015E0001DE1030E18D0740EDF5C17E07A0EDF5C8D
:1015F00014E0480EDF5C06E0540EDF5C03E05A0E98
:10160000DF5C02E1020E07D06C0EDF5C03E06A0EC5
:10161000DF5C04E1010EAFEC0FF0C9DBDF506E0AB6
:1016200001E17FD31E0A01E192D1200A01E18FD1AD
:101630003F0A01E149D11A0A01E146D10D0A01E14F
:1016400043D1200A01E140D13A0A01E13DD1200A0B
:1016500001E13AD1260A01E135D10D0A01E132D189
:101660001A0A01E1D9D0200A4AE0300A1FE0460AEE
:101670000EE0250A01E083D3D950F90FE96EFF0E81
:10168000DA20EA6E010EEE5E000EEE5AEE5ABDEC66
:101690000FF0250EE66E95DB03E1151C01E169D321
:1016A000B9EC0FF001E26BD3DB2A69D3080EDB6AD9
:1016B000040EDB50010806E2040EDB0481EC0FF09F
:1016C000DB508BDB080EDB5009E0030EDB50010B17
:1016D00005E172DB01E04DD3080EDB6A64DBEFCF7E
:1016E000DFFF31EC10F003E1151C01E142D3B9EC4E
:1016F0000FF001E3DB2A60DB01E141D33AD3070EAF
:10170000DB5002080FE1FDEC0FF0030EC4EC0FF00C
:101710000E0EEECFDBFF0F0EEECFDBFF100EEECF87
:10172000DBFF20D0F70EDBCF17F0F80EDBCF18F081
:10173000020E175E000E185AF70E17C0DBFFF80EE8
:1017400018C0DBFF17C0E9FF18C0EAFFB4EC0FF0C8
:10175000166A0E0E14C0DBFF0F0E15C0DBFF100E55
:1017600016C0DBFF0E0EDBCFE6FF0F0EDBCFE6FF72
:10177000100EDBCFE6FF00EC1EF0E552E552E5521D
:10178000130E05C0DBFF140E06C0DBFF060EDB5098
:1017900005E0130EF8EC0FF001E26ADB1CEC10F030
:1017A00002E2130E37DBDFEC0FF006E0040EF8EC7C
:1017B0000FF002E2050E2EDB030EDBB005D0FCDAE3
:1017C00001E0D7D2080EDB6A090EDB6A0E0EDBCF12
:1017D000F6FF0F0EDBCFF7FF100EDBCFF8FF080090
:1017E000F550DF6EDF5014E022EC10F011E231EC26
:1017F00010F003E1151C01E1BCD2BBDB01E3DB2AE5
:10180000090EDB2AD9500E0FE96E000ECBDBE7D7AD
:10181000D3DA01E1B4D2ADD2C6DA110EEECFDBFFDE
:10182000120EEDCFDBFF110EDBCFE6FF120EDBCF8A
:10183000E6FFF2EC1DF0E552E552130EF3CFDBFFAD
:10184000140EF4CFDBFF060EDB5004E0130ED0DBEA
:1018500001E20EDB1CEC10F002E2130EDBDAAFDB70
:1018600005E0040EC5DB02E2050ED4DA030EDBB0A0
:1018700005D0A2DA01E07DD2080EDB6A090EDB6A30
:10188000110EDBCFE9FF120EDBCFEAFFEFCFDFFF58
:10189000DF5014E0D7DB12E2E4DB03E1151C01E1C9
:1018A00068D267DB01E3DB2A090EDB2A110EDB2A93
:1018B000DBCFE9FF120EE8E3DB2AE6D77DDA01E1B0
:1018C0005ED257D2030EDB8E070EDB0410E195DBF0
:1018D000040E5ADB0A0EEECFDBFF0B0EEECFDBFF62
:1018E0000C0EEECFDBFF0D0EEECFDBFF6CD0070E44
:1018F000DB5003082CE1030EDBAE0DD0B2DA020E92
:1019000076DAEFCF14F0156A166A176A14AE39D07A
:101910001568166835D0F70EDBCF15F0F80EDBCF63
:1019200016F0020E155E000E165AF70E15C0DBFFFC
:10193000F80E16C0DBFF15C0E9FF16C0EAFFEFCFB7
:1019400014F00A0E14C0DBFF0B0EDB6A38D0070E52
:10195000DB50020809E1030EDBAE04D059DB16AE02
:1019600010D00ED055DB0DD0030EDBAE12D079DADD
:10197000020E3DDAF9DA166A176A15AE02D0166859
:101980001768E2DA0C0E16C0DBFF0D0E17C0DBFF86
:101990001AD0F70EDBCF16F0F80EDBCF17F0020EE1
:1019A000165E000E175AF70E16C0DBFFF80E17C0B2
:1019B000DBFF16C0E9FF17C0EAFFD6DAC5DA0C0E66
:1019C000DB6A0D0EDB6A060EDB5005E1010EF36EDD
:1019D000050EF3CFDBFF150EDB6A160EDB6AD9505E
:1019E000370F146E000EDA20156E390E14C0DBFFAF
:1019F0003A0E15C0DBFF380EDB6A080EDB6A0A0EF2
:101A0000AEDADF50780A12E0200A10E0280A0CE073
:101A1000200A0AE03F0A06E00D0A02E0200A08E177
:101A2000020E05D0080E03D0080EDF26100E97DA3E
:101A3000030EDBBE02D0DB92DB94DB50800B24E094
:101A40008ADAD890030EEB50000A08E6000EEE5C2E
:101A5000000EEE58000EEE58000EEE5815E213DAA6
:101A600009680A680B680C6883EC1DF00A0E00C058
:101A7000DBFF0B0E01C0DBFF0C0E02C0DBFF0D0E07
:101A800003C0DBFF2D0E08D0030EDBA202D02B0E0D
:101A900003D0DBA408D0200EF36E170EF3CFDBFFCC
:101AA000150EDB2A02D0170EDB6A050EDB5003E1B0
:101AB000B7D901E189D0EC0E146E3D0E156E000E03
:101AC000166E070EDBCF17F0186A196A1A6A17C06C
:101AD00009F018C00AF019C00BF01AC00CF0D3D9E5
:101AE00051EC1EF014500024F36E15500120F46EDA
:101AF00016500220F86EF4CFF7FFF3CFF6FF080080
:101B0000090EF5CFDBFF580EDF5C0FE1610EF36EBF
:101B1000090E7BD90AE3200E146E090EDBCFE7FF16
:101B20001450E75E090EE7CFDBFF070EDBCF14F0A2
:101B3000156A166A176A0FDA14C009F015C00AF0A0
:101B400016C00BF017C00CF0EECF04F0EECF05F08E
:101B5000EECF06F0EFCF07F051EC1EF007C0EDFF1F
:101B600006C0EDFF05C0EDFF04C0EFFF390EDBCF6F
:101B7000E9FFDB063A0EDBCFEAFF01E2DB06090EE6
:101B8000DBCFEFFF150EDB2A4BD995E1030EDBA669
:101B90001DD06F0EDF5C06E1C1D918E3150EDB28FE
:101BA0005BDA14D0780EDF5C09E0580EDF5C06E0EB
:101BB000620EDF5C03E0420EDF5C08E1020EF36EB2
:101BC000160EF3CFDBFF02D0150EDB6A030EDB50DF
:101BD000100B0EE0040EDBCF14F0050EDB50D880A6
:101BE000145406E2060EDB5003E1040EDB5034DA37
:101BF00095D90AE2050EDBCFE7FF150EDB50E75E55
:101C0000050EE7CFDBFF02D0050EDB6A040EDBCF4B
:101C100014F0160E45D9D880145414E2160EDBCFFA
:101C2000E6FF150EDBCFE6FF040EDBCFE6FF050E69
:101C3000DB50E552E75CE552D880E754E552D880A6
:101C4000E7545FD9030EDB50010B0BE1080EDB50AC
:101C500008E0B2D801E08DD0080EDB50BED8080EE7
:101C6000DB6A170EDB5007E088D9170EF1D903E1C4
:101C7000151C01E17ED0160EDB5016E07ED9300E29
:101C8000E66E9FD802E1151C74E077D9DFCFE6FF3E
:101C900041EC1DF0E552E552E552F4CF15F000019C
:101CA000F31C02E1151C65E0050EDBCF14F0160EE7
:101CB000DB50D880145409E2050EDBCFE7FF160E87
:101CC000DB50E75E050EE7CFDBFF300EE66E050E5C
:101CD000CBD94FE1390EDB2ADBCFE9FF3A0E01E326
:101CE000DB2ADBCFEAFF090EEFCFDBFFDB500EE094
:101CF00044D9090EADD902E1151C3BE0390EDB2AAF
:101D0000DBCFE9FF3A0EEDE3DB2AEBD755D831E123
:101D1000160EDBCFE6FF080EC3D8E552E7245DD8E8
:101D20002ED0070EDB50030A1CE0010A14E0030A60
:101D300007E07BD9DBCFEEFF020EDBCFEDFF1FD03C
:101D4000F5D8196A17AE02D0186819682CD8BCD813
:101D500019C0EEFF14D0EAD817BE186824D8B4D83A
:101D60000ED063D9DBCFEFFF0AD07BD905E1151C7C
:101D700003E1F368F46810D0FCD801E3DB2A79D9D9
:101D80005EEF0AF0010EDBCF14F0020EDBCF15F090
:101D900014C0F3FF15C0F4FF3B0EE15C02E2E16A00
:101DA000E552E16ECBD029D9020EC4EF0FF061D914
:101DB0000800F550DF6E1200200EE66E080E34EFBC
:101DC00010F041EC1DF0E552E552E552F3CF14F06E
:101DD000F4CF15F00001F31C1200146E156AD950EF
:101DE000010F4DD91450EE261550ED221200185E49
:101DF000000E195AF70E18C0DBFFF80E19C0DBFFF2
:101E000018C0E9FF19C0EAFF1200DBCFF4FFF3505E
:101E1000F45C1200DB50E76E040EE7CFDBFF12002C
:101E20000A0EDBCF14F00B0EDBCF15F00C0EDBCF60
:101E300016F00D0EDBCF17F01450151016101710FA
:101E40001200130EEECFDBFF140EEDCFDBFF130EEF
:101E5000DBCF14F0140EDBCF15F00001800E15144B
:101E60001200F70EDBCF18F0F80EDBCF19F01200DE
:101E7000050EDB50E66ED950130F01D9E552E7503D
:101E8000EE6EED6A12000A0EDBCF04F00B0EDBCF14
:101E900005F00C0EDBCF06F00D0EDBCF07F01200C5
:101EA000DBCFE6FF150EDBCFE6FF050EDB50E5527C
:101EB000E724E552E7241200DB50CED8010EF36E82
:101EC000060EF3CFDBFF1200EE50EFCFEAFFE96E14
:101ED00016C0EEFF17C0EEFF18C0EEFF1200D9CFFC
:101EE000E6FFDACFE6FFE1CFD9FFE2CFDAFF12005B
:101EF000DFCFE6FFE66ABFEC1EF0E552E552F35095
:101F00001200E76E080EE7CFDBFF1200EECF14F0F1
:101F1000EECF15F0EFCF16F0176A1200050EDBCFEB
:101F200014F0150EDB50D88014541200010EDBCFD4
:101F300016F0020EDBCF17F0186A1200E552E5CF5B
:101F4000DAFFE7CFD9FF12000A0E14C0DBFF0B0E39
:101F500015C0DBFF1200D9500A0F3FEF10F0F36EEF
:101F6000070EF3CFDBFF1200EECF14F0EFCF15F02A
:101F70001200010EDB2A020E1200FC0EDBCFE6FF80
:101F8000FD0EDBCFE6FF1200145E000E155AF70EB1
:101F900014C0DBFFF80E15C0DBFF14C0E9FF15C04D
:101FA000EAFF1200DA20EA6EEF2AEECFF6FF000E0B
:101FB000EF22EECFF7FFEF22EECFF8FF1200040E74
:101FC000DBCFE6FF130EDB50E552E75C9ADFDB5018
:101FD00004DF060EDB501200090EDB500A0DF35031
:101FE000DF24D00FE76E090EE7CFDBFFD7EF0EF04F
:101FF000DB50F36E050E05EF0FF0F70EDBCF14F09C
:10200000F80EDBCF15F01200DFCFE6FFE1EF0EF0A8
:1020100028DF030EECDE86EF0FF033EC0AF0E5521A
:10202000E552E552E55200091200BDDEEE50EFCF59
:10203000EAFFE96E010E1200130EDB50F36E040E80
:1020400005EF0FF0040EDB50F36E090E05EF0FF0F5
:10205000DBCFE6FFE1EF0EF0E76E050EE7CFDBFF2B
:1020600012008BDF04EF10F0DBCFE6FF86DF0DEF11
:1020700010F0D950F90FE96EFF0ED2EF0FF0E96EB4
:08208000000EDA20EA6E1200E6
:08208800800EE66E85DAE552D8
:10209000890E706ED80E716E020E726E100E736E17
:1020A000778E779C606A0F01506B0E01206B306B4E
:1020B000406B506B606B706B0D01F80EF86F0F0189
:1020C000006B016B046B056B086B096B0C6B0D6B84
:1020D000106B116B146B156B0D013F0ED46FD56B2C
:1020E000E06B110EE16FE26FE36BE46BE56BE66BA7
:1020F000E76B500EF06F050EF16FF26BF26B0F0194
:10210000186B196B19971C6B1D6B1D97E66A44DAE7
:10211000E5521200D9CFE6FFE1CFD9FF1A0EE12632
:10212000D950060FE96EDACFEAFF400EEE6E0F0EC1
:10213000ED6ED950080FE96EDACFEAFF300EEE6E81
:102140000F0EED6ED9500A0FE96EDACFEAFF200EBE
:10215000EE6E0F0EED6ED9500C0FE96EDACFEAFF7E
:10216000200EEE6E0E0EED6ED9500E0FE96EDACF28
:10217000EAFF300EEE6E0E0EED6ED950100FE96EC6
:10218000DACFEAFF400EEE6E0E0EED6ED950120F52
:10219000E96EDACFEAFF500EEE6E0E0EED6ED950FC
:1021A000140FE96EDACFEAFF600EEE6E0E0EED6EE2
:1021B000D950160FE96EDACFEAFF700EEE6E0E0EF2
:1021C000ED6E0D01F8417F0BE76E190EE7CFDBFFD7
:1021D000DF6A080EDF5C01E3E4D0D950060F146E0D
:1021E000DACF15F0DF50020D1450F324E96E1550CC
:1021F000F420EA6E020EEECFDBFF030EEDCFDBFF25
:10220000020EDBCF06F0030EDBCF07F0040E06C094
:10221000DBFF050E07C0DBFFDF50020810E2190EDE
:10222000DBCFF3FFF390F342F3CFDBFFD950190F6D
:10223000E96EDACFEAFFEF50010B01E1B0D0020EF8
:10224000DBCFE9FF030EDBCFEAFFEF50080B01E025
:10225000A6D0FC0E146E020EDBCFE9FF030EDBCF1F
:10226000EAFF1450EF16F70EDB50030B146E020E4C
:10227000DBCFE9FF030EDBCFEAFF1450EF12F70EBE
:10228000DBAC08D0F80EDB504009E76E180EE7CF44
:10229000DBFF06D0F80EDB50E76E180EE7CFDBFF52
:1022A000050EE76E020EDBCFE9FF030EDBCFEAFF80
:1022B000E750E926000EEA22180EDBCFEFFFF70EFB
:1022C000DBAA06D0010EF36E180EF3CFDBFF02D0AF
:1022D000180EDB6ADBCFE6FFD950FB0FE96EFF0E6D
:1022E000DA20EA6EEECFE6FFEECFE6FFEECFE6FFB6
:1022F000EFCFE6FF010EE76E020EDBCF14F0030E08
:10230000DBCF15F0E7501426000E152214C0E6FFAF
:1023100015C0E6FF56D9166E070EE15E1650D9506D
:10232000020FE96EDACFEAFF060EEE26000EED226E
:10233000010EDB6AF80EDB50F36E010EDBCFF4FF0B
:10234000F350F45C1AE2F90EDBCFE9FFDB2AFA0E58
:10235000DBCFEAFF01E3DB2AEF50E66E020EDBCFB4
:10236000E9FFDB2A030EDBCFEAFF01E3DB2AE552BC
:10237000E750EF6E010EDB2ADDD7040EDBCFE9FF5D
:10238000050EDBCFEAFFEF50040B07E1040EDBCFB5
:10239000E9FF050EDBCFEAFFEF86010E04D0DF2A4E
:1023A00018D7000E00D0146E1A0EE15C02E2E16A4A
:1023B000E552E16E1450E552E7CFD9FF1200D9CFB4
:1023C000E6FFE1CFD9FF060EE1260001796B74AE7E
:1023D00015D0070E6F14E66EBDDAE552F3CFDEFFBF
:1023E000F4CFDDFFDECFE9FFDDCFEAFFEF501F0BBB
:1023F0000001796FA49274AC0BD002D0000EC0D053
:10240000F70EDBCFE9FFF80EDBCFEAFFEF86749C17
:10241000D9CFE9FFDACFEAFF020EEECFDBFF030EE2
:10242000EDCFDBFFF70EDBCFE9FFF80EDBCFEAFFE6
:10243000EF6ADECFE9FFDDCFEAFF050EE926000EE9
:10244000EA22050EEFCFDBFFDB500F0BE66EF90E35
:10245000DBCFE9FFFA0EDBCFEAFFE552E750EF6E84
:10246000D950050FE96EDACFEAFFEF50400B07E0D5
:10247000F70EDBCFE9FFF80EDBCFEAFFEF8CDECF04
:10248000E9FFDDCFEAFF020EE926000EEA22050E83
:10249000EFCFDBFFD950050FE96EDACFEAFFEF503F
:1024A000080B0DE0F70EDBCFE9FFF80EDBCFEAFFFC
:1024B000EF8A010EF36E050EF3CFDBFF02D0050E9F
:1024C000DB6ADBCFE6FFFD0EDBCFE6FFFE0EDBCFE8
:1024D000E6FFDECF14F0DDCF15F0010E1426000E5E
:1024E000152214C0E6FF15C0E6FF4BD9166E050E87
:1024F000E15E1650060EDE26000EDD22F90EDBCF61
:10250000E9FFFA0EDBCFEAFF050EEFCFDBFF040E8B
:10251000DB6A050EDB50F36E040EDBCFF4FFF350E5
:10252000F45C19E2DFCFE9FFDF2A010EDBCFEAFF1F
:1025300001E3DB2AEF50E66EFB0EDBCFE9FFDB2A7F
:10254000FC0EDBCFEAFF01E3DB2AE552E750EF6E3A
:10255000040EDB2ADED7A4AE08D0F70EDBCFE9FFEE
:10256000F80EDBCFEAFFEF88A49E020EDBCFE9FF77
:10257000030EDBCFEAFFEF9E749E749E010E00D027
:10258000146E060EE15C02E2E16AE552E16E14505F
:10259000E552E7CFD9FF1200D9CFE6FFE1CFD9FF4F
:1025A0001F0E6F16FE0EDB506F12E00E6E14146ECF
:1025B000FE0EDB50145C01E0F8D7E552E7CFD9FFFF
:1025C0001200D9CFE6FFE1CFD9FF020EE126D950A4
:1025D000F90F146EFF0EDA20156E14C0DEFF15C061
:1025E000DDFFF80EDB503BE1DECFE9FFDDCFEAFF98
:1025F000EF50E840E840E8401F0BE66EFD0EDBCFF1
:10260000E9FFFE0EDBCFEAFFE552E750EF6EDECFCB
:10261000E9FFDDCFEAFFEE52EF50200DF3CF14F0CB
:10262000FD0EDBCFE9FFFE0EDBCFEAFF1450EF1209
:10263000FD0EDB2AFE0E01E3DB2ADECFE9FFDDCF54
:10264000EAFFEF50200DF350E66EFD0EDBCFE9FF01
:10265000FE0EDBCFEAFFE552E750EF6E88D0DECF0B
:10266000E9FFDDCFEAFF020EE926000EEA22EF5075
:10267000E00BE838E840E66EFD0EDBCFE9FFFE0E2A
:10268000DBCFEAFFE552E750EF6EDECFE9FFDDCFAB
:10269000EAFF030EE926000EEA22EF50080DF3CF01
:1026A00014F0FD0EDBCFE9FFFE0EDBCFEAFF145086
:1026B000EF12FD0EDB2AFE0E01E3DB2ADECFE9FF7F
:1026C000DDCFEAFF020EE926000EEA22EF50080DE8
:1026D000F350E00BE66EFD0EDBCFE9FFFE0EDBCF25
:1026E000EAFFE552E750EF6EFD0EDBCFE9FFFE0E8D
:1026F000DBCFEAFFEF86DECFE9FFDDCFEAFF020E98
:10270000E926000EEA22EF50030B146EFD0EDBCF1C
:10271000E9FFFE0EDBCFEAFF1450EF12FD0EDB2ABD
:10272000FE0E01E3DB2ADECFE9FFDDCFEAFFEE524A
:10273000EF50E66EFD0EDBCFE9FFFE0EDBCFEAFFCA
:10274000E552E750EF6EFD0EDB2AFE0E01E3DB2AB9
:10275000DECFE9FFDDCFEAFFEF50E66EFD0EDBCF07
:10276000E9FFFE0EDBCFEAFFE552E750EF6E020E07
:10277000E15C02E2E16AE552E16EE552E7CFD9FFA2
:102780001200D9CFE6FFE1CFD9FF020EE126FB0E02
:10279000DBCFDEFFDBCFDDFFFA0EDB504DE1FD0EC0
:1027A000DBCFE9FFFE0EDBCFEAFFEF50080DF35061
:1027B000E66EDECFE9FFDDCFEAFFE552E750EF6ED0
:1027C000FD0EDBCFE9FFFE0EDBCFEAFFEF50E00BA3
:1027D000E838E840E66EDECFE9FFDDCFEAFFEE52F3
:1027E000E552E750EF6EFD0EDB2AFE0E01E3DB2A19
:1027F000FD0EDBCFE9FFFE0EDBCFEAFFEF50E00B73
:10280000E838E840146EDECFE9FFDDCFEAFF145070
:10281000EF12DECFE9FFDDCFEAFF020EE926000E60
:10282000EA22EF6ADECFE9FFDDCFEAFF030EE926F9
:10283000000EEA22EF6A84D0FD0EDBCFE9FFFE0E28
:10284000DBCFEAFFEF50200DF350E66EDECFE9FF5D
:10285000DDCFEAFF020EE926000EEA22E552E7503C
:10286000EF6EFD0EDBCFE9FFFE0EDBCFEAFFEF5090
:10287000E840E840E8401F0BE66EDECFE9FFDDCF21
:10288000EAFF030EE926000EEA22E552E750EF6E5A
:10289000FD0EDB2AFE0E01E3DB2AFD0EDBCFE9FF96
:1028A000FE0EDBCFEAFFEF50030B146EDECFE9FF25
:1028B000DDCFEAFF020EE926000EEA221450EF12E5
:1028C000FD0EDBCFE9FFFE0EDBCFEAFFEF50E00BA2
:1028D000E840E840E8401F0B146EDECFE9FFDDCF93
:1028E000EAFF020EE926000EEA221450EF12FD0E56
:1028F000DB2AFE0E01E3DB2AFD0EDBCFE9FFFE0E35
:10290000DBCFEAFFEF50E66EDECFE9FFDDCFEAFF77
:10291000EE52E552E750EF6EFD0EDB2AFE0E01E3AC
:10292000DB2AFD0EDBCFE9FFFE0EDBCFEAFFEF5027
:10293000E66EDECFE9FFDDCFEAFFE552E750EF6E4E
:10294000020EE15C02E2E16AE552E16EE552E7CF98
:10295000D9FF1200D9CFE6FFE1CFD9FF020EE12661
:10296000FE0EDB50060A2FE0030A28E0010A21E0F0
:10297000070A1AE0010A13E0030A0CE0010A05E065
:10298000700EDE6E0E0EDD6E23D0600EDE6E0F0E4C
:10299000DD6E1ED0500EDE6E0F0EDD6E19D0200ED5
:1029A000DE6E0E0EDD6E14D0300EDE6E0E0EDD6E9F
:1029B0000FD0400EDE6E0E0EDD6E0AD0500EDE6EB3
:1029C0000E0EDD6E05D0600EDE6E0E0EDD6E00D0DA
:1029D000DECF14F0DDCF15F014C0F3FF15C0F4FF07
:1029E000020EE15C03E200D0E16AE552E16EE552DD
:0629F000E7CFD9FF120041
:0A29F6000F9E08D00F9E07AE05D01B
:102A0000066C071EE86A07220F8E07C001F006C099
:102A100000F0136A126A8E0E026E036AB1EF16F0AE
:102A20000F9E0CD00F9E07AE09D0046C051E061E2B
:102A3000071EE86A0522062207220F8E07C001F052
:102A400006C000F005C013F004C012F09E0E026E26
:102A5000036AB1EF16F00D7E0F6AEDEC16F005EC8F
:102A600017F00FB695EF16F00FA20AD00FAA03D0F9
:102A70000FBE95EF16F00FA4A1EF16F09EEF16F023
:102A80000FAA05D00FACA1EF16F09EEF16F00FA025
:102A90000AD00FA808D00FBE04D00FA402D0AAEF0E
:102AA00016F0AEEF16F0126A036A0D50085C116E54
:102AB00010E305C013F006C000F007C001F008C025
:102AC00010F00AC005F00BC006F00CC007F00F3A7A
:102AD00009D00AC013F00BC000F00CC001F00DC00B
:102AE00010F0116C0F9E0FBC0F8E10C002F00FB0D3
:102AF000DDEF16F01A0E1160DDEF16F0026A086ABB
:102B00000FA408D0056C061E071E081EE86A0622E0
:102B1000072208220FAC08D0136C001E011E021EF3
:102B2000E86A002201220222046A115207E00834F6
:102B30000732063205320432112EF9D7055013261A
:102B400006500022075001220850022204C012F051
:102B50000F9E02AE0BD0126C131E001E011E021E31
:102B6000E86A13220022012202220F8E02A006D060
:102B7000D8800132003213321232102A10C002F013
:102B8000B1EF16F00F6AEDEC16F005EC17F00FB68A
:102B900095EF16F00FA205D00FB895EF16F09CEF49
:102BA00016F00FAA05D00FB095EF16F09CEF16F0B7
:102BB0000FB002D00FA802D0A8EF16F0036A0D5094
:102BC0000824026EE86A03227E0E025EE86A035A57
:102BD000126A136A006A016A0C500702F4CF01F00E
:102BE000F3CF00F00B500702F3501326F4500022ED
:102BF000000E01220C500602F3501326F45000225E
:102C0000000E01220A500702F3501226F45013223C
:102C1000000E002201220B500602F3501226F4503F
:102C20001322000E002201220C500502F35012263E
:102C3000F4501322000E002201220A500602F45022
:102C40001226000E1322002201220B500502F4501E
:102C50001226000E132200220122B1EF16F00F6A95
:102C6000EDEC16F00FB639EF16F00FA20ED00FB440
:102C700005D07F0E076EFF0E066E1FD0800E076E0A
:102C8000066A1BD0076A066A18D00FB0FBD78F0EF2
:102C90000860EDD77E0E0864F5D78E0E085C05E05F
:102CA000D89007320632082AF8D70FA406D0066C4F
:102CB000071EE86A072207AEE5D712000F6AEDEC9F
:102CC00016F00FB668EF16F00FA20FD00FB407D0B2
:102CD0007F0E076EFF0E066E056E046E25D0800E09
:102CE000076E01D0076A000EF6D70FB0FBD7046A53
:102CF0009F0E0860EBD77E0E0864F4D79E0E085C2A
:102D000007E0D8900732063205320432082AF6D797
:102D10000FA40AD0046C051E061E071EE86A0522D1
:102D20000622072207AEDED712007F0E086EFF0EC6
:102D3000076E066E056E12007F0E0FBEFF0E086E48
:102D400002D07F0E086E800E076E066A056AF3D702
:102D50000FAE04D0800E086E076AF7D7086A076ABC
:102D6000F4D70150001013101210F8E003BEF0D792
:102D700001BE0CD002500310EBE0D890123613368F
:102D8000003601360206D8A00306F2D70350D4E17C
:102D90000228D2E012AE11D07F0E121402E113A06D
:102DA0000CD0132AE86A0022012207E3D8800132FE
:102DB00000321332022A0228BFE00250C9E013C0D9
:102DC00005F000C006F00134076E0230086E0732CD
:102DD000089E0FBE088E9BEF16F00736083602E3FA
:102DE0000F840F7E06E10F80086A076A066A056A8B
:102DF0001200082803E0D88007321200D89007326A
:102E000002E10F8212000F8612000C360D3602E32B
:102E10000F8C0F7E06E10F880D6A0C6A0B6A0A6A36
:102E200012000D2803E0D8800C321200D8900C322A
:102E3000EAE10F8A120007C013F006C012F0065034
:102E40000B02F4CF05F0F3CF04F007500C02F4CFDF
:102E500007F0F3CF06F00B02F3500526F4500622DC
:102E6000E86A072212500C02F3500526F45006229D
:102E7000E86A07220CAE41EF17F01250065E1350BD
:102E8000075A13AE000C0B50065E0C50075A000C8C
:102E900000D01200D59ED59CD59AD596D584D592D2
:102EA000D580F28EF28AF294D58E00D012008B90EB
:102EB0009490070EB4127C0E9512948A1200938699
:102EC000949444EC10F000D01200D9CFE6FFE1CF8B
:102ED000D9FF7AEC19F0870EE66EA8EC1EF0E552E9
:102EE00029EC1AF0F3CF22F0F4CF23F022C006F041
:102EF00023C007F0FBEC14F005C01EF006C01FF065
:102F000007C020F008C021F0410E0A6E820E0B6E41
:102F1000EA0E0C6E400E0D6E1EC005F01FC006F0CE
:102F200020C007F021C008F02BEC15F005C01AF006
:102F300006C01BF007C01CF008C01DF00A6AA90EED
:102F40000B6EC60E0C6E3A0E0D6E1AC005F01BC04D
:102F500006F01CC007F01DC008F0C2EC15F005C05B
:102F600016F006C017F007C018F008C019F00A6A7A
:102F70000B6AC80E0C6E420E0D6E16C005F017C01F
:102F800006F018C007F019C008F0C2EC15F02FECDD
:102F900016F006C014F007C015F0FD0EDBCFE9FFF8
:102FA000FE0EDBCFEAFF14C0EEFF15C0EDFF8F0E63
:102FB000E66EA8EC1EF0E55229EC1AF0F3CF22F0F1
:102FC000F4CF23F022C006F023C007F0FBEC14F08E
:102FD00005C01EF006C01FF007C020F008C021F099
:102FE000410E0A6E820E0B6EEA0E0C6E400E0D6ED6
:102FF0001EC005F01FC006F020C007F021C008F079
:103000002BEC15F005C01AF006C01BF007C01CF031
:1030100008C01DF00A6AA90E0B6EC60E0C6E3A0EA1
:103020000D6E1AC005F01BC006F01CC007F01DC0D5
:1030300008F0C2EC15F005C016F006C017F007C086
:1030400018F008C019F00A6A0B6AC80E0C6E420E1E
:103050000D6E16C005F017C006F018C007F019C0B5
:1030600008F0C2EC15F02FEC16F006C014F007C003
:1030700015F0FB0EDBCFE9FFFC0EDBCFEAFF14C03F
:10308000EEFF15C0EDFF00D0E552E7CFD9FF1200EB
:103090008B828B868B84F10E941600D01200D9CFD0
:1030A000E6FFE1CFD9FF070EE1263F0EF36E020ED9
:1030B000F3CFDBFFE66A25EC1EF0E552DF6E060E6D
:1030C000146EDF5014C0E7FFE75204E0E8427F0BC4
:1030D000E706FCE1E76E010EE7CFDBFFDB500008FF
:1030E00001E39AD0010EDB043BE1020EDB50DF145A
:1030F000E76E030EE7CFDBFF010EE66E25EC1EF058
:10310000E552E76E040EE7CFDBFF020EE66E25EC1C
:103110001EF0E552E76E050EE7CFDBFF030EE66E0D
:1031200025EC1EF0E552E76E060EE7CFDBFFE66A00
:10313000040EE66ED950030FE66E000EDA20E66E3E
:10314000030EE66E010EE66EE66AE66A8AEC10F0A1
:10315000146E080EE15E1450000901E1E8D753D067
:10316000010EDB5002082FE1030EDB68010EE66E54
:1031700025EC1EF0E552E76E040EE7CFDBFF020EF2
:10318000E66E25EC1EF0E552E76E050EE7CFDBFF9D
:10319000060EDB6AE66A040EE66ED950030FE66E91
:1031A000000EDA20E66E030EE66E010EE66EE66AAB
:1031B000E66A8AEC10F0146E080EE15E1450000905
:1031C00001E1E8D720D0030EDB68040EDB6A050EB0
:1031D000DB6A060EDB68E66A040EE66ED950030F62
:1031E000E66E000EDA20E66E030EE66E010EE66E67
:1031F000E66AE66A8AEC10F0146E080EE15E14507E
:10320000000901E1E8D7020EDB50DF14E66EE66A42
:1032100039EC1EF0E552E552070EE15C03E200D006
:10322000E16AE552E16EE552E7CFD9FF1200D9CF4E
:10323000E6FFE1CFD9FF040EE126DE6ADE6ADE6A30
:10324000DD6ADD52DD528B92DE6ADE6ADE6ADD6A9D
:10325000DD52DD52D9CFE9FFDACFEAFFC00EEE5CD6
:10326000270EEE58090EEE58000EEE580AE2D9CF9E
:10327000E9FFDACFEAFFEE2A000EEE22EE22EE227E
:10328000E9D78B96DE6ADE6ADE6ADD6ADD52DD52E0
:10329000D9CFE9FFDACFEAFFA00EEE5C860EEE583A
:1032A000010EEE58000EEE580AE2D9CFE9FFDACF50
:1032B000EAFFEE2A000EEE22EE22EE22E9D78B8202
:1032C0008B94040EE15C03E200D0E16AE552E16E0A
:0832D000E552E7CFD9FF12001F
:0832D80092820B0EE66E040E5B
:1032E000E66EAB0EE66EBBEC1DF0E552E552E55224
:1032F00000D012000F0E92123B0EC16E0D0EE66E44
:10330000070EE66EAF0EE66EBBEC1DF0E552E55221
:10331000E55200D01200D9CFE6FFE1CFD9FF020E6F
:10332000E126DE6ADD6A0BEC1FF006EC1FF00009F7
:1033300001E0FBD7EDEC1EF0F3CFDEFFF4CFDDFFB5
:10334000DECF14F0DDCF15F014C0F3FF15C0F4FF8D
:10335000020EE15C03E200D0E16AE552E16EE55263
:10336000E7CFD9FF1200D9CFE6FFE1CFD9FF080E92
:10337000E126DE6ADD6A020EDB6A030EDB6A040EFA
:10338000DB6A050EDB6A060EDB6A070EDB6ADE6AA5
:10339000DD6ADECF14F0DDCF15F0D890155004E6CD
:1033A000000E145C040E155825E20BEC1FF006EC21
:1033B0001FF0000901E0FBD7EDEC1EF0F3CF14F095
:1033C000F4CF15F0166A176A15AE02D016681768A2
:1033D000D950040FE96EDACFEAFF1450EE261550EB
:1033E000EE221650EE221750EE22DF2A010E01E3E4
:1033F000DB2ACFD7040EDBCF14F0050EDBCF15F0A0
:10340000060EDBCF16F0070EDBCF17F00A0ED890B2
:103410001732163215321432E806F9E1020E14C0E2
:10342000DBFF030E15C0DBFF020EDBCF14F0030E33
:10343000DBCF15F014C0F3FF15C0F4FF080EE15CFC
:1034400003E200D0E16AE552E16EE552E7CFD9FF31
:103450001200D9CFE6FFE1CFD9FF080EE126DE6AE0
:10346000DD6A020EDB6A030EDB6A040EDB6A050E00
:10347000DB6A060EDB6A070EDB6ADE6ADD6ADECF18
:1034800014F0DDCF15F0D890155004E6000E145C52
:10349000040E155825E20BEC1FF006EC1FF0000996
:1034A00001E0FBD7EDEC1EF0F3CF14F0F4CF15F0F4
:1034B000166A176A15AE02D016681768D950040F3D
:1034C000E96EDACFEAFF1450EE261550EE221650C0
:1034D000EE221750EE22DF2A010E01E3DB2ACFD7BE
:1034E000040EDBCF14F0050EDBCF15F0060EDBCF9C
:1034F00016F0070EDBCF17F0050ED89017321632F4
:1035000015321432E806F9E1020E14C0DBFF030E97
:1035100015C0DBFF020EDBCF14F0030EDBCF15F07E
:1035200014C0F3FF15C0F4FF080EE15C03E200D005
:10353000E16AE552E16EE552E7CFD9FF1200D9CF3B
:10354000E6FFE1CFD9FF020EE126DE6ADD6A0BDF7E
:10355000F3CF18F0F4CF19F018C006F019C007F037
:10356000FBEC14F005C014F006C015F007C016F00F
:1035700008C017F00A6A400E0B6E9C0E0C6E400ECF
:103580000D6E14C005F015C006F016C007F017C088
:1035900008F0C2EC15F02FEC16F006C0DEFF07C0F5
:1035A000DDFFDECF14F0DDCF15F014C0F3FF15C042
:1035B000F4FF020EE15C03E200D0E16AE552E16E45
:1035C000E552E7CFD9FF1200D9CFE6FFE1CFD9FF0F
:1035D000020EE126DE6ADD6A3CDFF3CF18F0F4CF9D
:1035E00019F018C006F019C007F0FBEC14F005C084
:1035F00014F006C015F007C016F008C017F00A6AEC
:10360000500E0B6EC30E0C6E3F0E0D6E14C005F007
:1036100015C006F016C007F017C008F0C2EC15F090
:103620002FEC16F006C0DEFF07C0DDFFDECF14F082
:10363000DDCF15F014C0F3FF15C0F4FF020EE15CFE
:1036400003E200D0E16AE552E16EE552E7CFD9FF2F
:02365000120066
:0E365200D9CFE6FFE1CFD9FF6D0EE126040EC1
:10366000DB6A050EDB6A060EDB6A070EDB6A080EF4
:10367000DB6A090EDB6A0A0EDB6A0B0EDB6A010EDF
:10368000F36E0C0EF3CFDBFF926A936A2F0E946EEB
:103690007C0E956E966A8A6A8B6A8C6A8D6A48EC93
:1036A00018F075EC1EF05FEC17F057EC17F04FECCC
:1036B00018F0D950060FE66E000EDA20E66ED950EB
:1036C000040FE66E000EDA20E66E65EC17F0E552A8
:1036D000E552E552E55283AA0AD025EC00F004C079
:1036E00064F005C065F006C066F007C067F0200E04
:1036F000E66ED9504D0FE66E000EDA20E66ED95018
:103700000D0FE66E000EDA20E66E17EC02F0146E76
:10371000050EE15E14504AEC17F017EC19F0200E7C
:10372000E66ED9504D0FE66E000EDA20E66ED950E7
:103730000D0FE66E000EDA20E66E17EC02F0146E46
:10374000050EE15E14500C0EDBCFE6FF200EE66E98
:10375000D9500D0FE66E000EDA20E66EA6EC06F0EC
:10376000E552E552E552E552E76E0C0EE7CFDBFF7E
:1037700000016B3504E26A513C08000E6B5515E2FE
:10378000200EE66E6C0EE66E000EE66ED9500D0F42
:10379000E66E000EDA20E66EA3EC04F0146E050E61
:1037A000E15E145000016A6B6B6B8B908350040BCD
:1037B00006E08350080B03E08350200B01E18B806F
:1037C000DE6ADE6ADE6ADD6ADD52DD52D9CFE9FFEC
:1037D000DACFEAFF900EEE5C010EEE58000EEE58C6
:1037E000000EEE580AE2D9CFE9FFDACFEAFFEE2A5F
:1037F000000EEE22EE22EE22E9D791D76D0EE15CAB
:1038000003E200D0E16AE552E16EE552E7CFD9FF6D
:023810001200A4
:0E38120074656D70203D20252E32640A0D0075
:10382000566F6C74203D2025750A0D00416464724A
:10383000203D20252E32780A0D0053687574746976
:103840006E672043617220446F776E0A0D00434219
:10385000533D25640A0D0042433D256C640A0D006A
:103860004D65737361676520436F7272757074691B
:103870006F6E204572726F720D0A00545B252E32F6
:10388000645D3D252E32640A0D00565B252E3264A0
:103890005D3D25750A0D00536C6176652054696D98
:1038A000656F7574204572726F720D0A00536572F0
:1038B00069616C20506F7274204F6E6C696E650A7E
:0238C0000D00F9
:0E38C200300EF66E000EF76E000EF86E00016E
:1038D0000900F550726F0900F550736F03E17267CC
:1038E00001D03DD00900F5506D6F0900F5506E6FA5
:1038F0000900F5506F6F09000900F550E96E0900E5
:10390000F550EA6E090009000900F550706F0900D2
:10391000F550716F09000900F6CF74F0F7CF75F01C
:10392000F8CF76F06DC0F6FF6EC0F7FF6FC0F8FFFE
:103930000001705302E1715307E00900F550EE6E8B
:103940007007F8E27107F9D774C0F6FF75C0F7FF8A
:1039500076C0F8FF00017207000E735BBFD712003C
:10396000D9CFE6FFDACFE6FFE1CFD9FFE2CFDAFF2A
:10397000E652E652E652E652D950FB0F146EFF0EA5
:10398000DA20156E14C0DEFFDD6EDECFE6FFDDCF80
:10399000E6FFFB0EDBCFE6FFFC0EDBCFE6FFFD0E06
:1039A000DBCFE6FF77C0E6FF78C0E6FF49EC0AF020
:1039B000146E070EE15C02E2E16AE552E16E14501A
:1039C000020EF3CFDBFF030EF4CFDBFF020EDBCFE3
:1039D00014F0030EDBCF15F014C0F3FF15C0F4FF95
:1039E000040EE15C02E2E16AE552E16EE552E5CFE8
:0839F000DAFFE7CFD9FF120056
:0839F800D9CFE6FFDACFE6FFAC
:103A0000E1CFD9FFE2CFDAFFAC6AAB6AFD0EDBB0E3
:103A1000AC88DBA202D0AC8CAB8CDBB4AC8EDBA66A
:103A200002D0AB8801D0AB8ADBB8AC849E98DBBAFD
:103A3000AB86DBAC02D09D8A01D09D9A9E9ADBAE0C
:103A400002D09D8801D09D98FB0EDB50AF6EFB0E1F
:103A5000FC0EDBCF15F015C014F0156A1450B06ED3
:103A6000AC8AAB8E949C948EAC50100B04E0AC509E
:103A7000800B01E1948CE552E5CFDAFFE7CFD9FF67
:023A8000120032
:0E3A8200D9CFE6FFDACFE6FFE1CFD9FFE2CFE2
:103A9000DAFFFB0EDBCF14F0FC0EDBCF15F00001DC
:103AA000800E15141AE1FB0EDBCFE9FFFC0EDBCF15
:103AB000EAFFEECFF3FFEDCFF4FFEE2A000EEF2288
:103AC000F3CFE9FFF4CFEAFFFD0EDBCFEFFFEF50BE
:103AD000156AF36E15C0F4FF10D0FB0EDB50FE0824
:103AE00006E1FD0EDBCFE6FFDFEC1EF005D0FD0E9C
:103AF000DBCFE6FF03EC00F0E552E552E5CFDAFF5D
:063B0000E7CFD9FF12001F
:0A3B060004500902F3CF00F0F4CFE1
:103B100001F00A02F3500126000EF420026E045058
:103B20000B02F3500226000EF420036E04500C0228
:103B3000F350032605500902F3500126F4500222E7
:103B4000000E032205500A02F3500226F45003220D
:103B500005500B02F350032606500902F3500226CB
:103B6000F450032206500A02F350032607500902BC
:063B7000F35003261200D1
:0A3B7600D9CFE6FFDACFE6FFE1CF7A
:103B8000D9FFE2CFDAFFC26AC06AFC0EDB407F0BCE
:103B90003C0BC26EFB0EDBCFE6FFFC0EDB38F00BFE
:103BA000300BE552E710C16EFD0EDB50040DF350F3
:103BB000380B156EFD0EDB380F0B070B146EFD0E68
:103BC000DB50800B14101510C06EFC0EDBAE03D062
:103BD0009E9C9D8CF28CC280E552E5CFDAFFE7CF48
:043BE000D9FF1200F7
:0C3BE400FE0EE3CFE9FFFF0EE3CFEAFF87
:103BF000F36AF46AEE5203E0F34AF42AFBD71200A8
:103C0000FF0EE3CFF8FFE552FF0EE3CFF7FFE552DB
:103C1000FF0EE3CFF6FFE552E66AE66AE66A0900C0
:103C2000F55209E0FD0EE32A05E1FE0EE32A02E16A
:103C3000FF0EE32AF4D7FD0EE3CF05F0FE0EE3CF2F
:0A3C400006F0FF0EE3CF07F01200BC
:063C4A00D9CFE6FFE1CF37
:103C5000D9FFE652FE0EDB50A96EA69EA69CA6805A
:103C6000A850DF6EDF5000D0E552E552E7CFD9FF14
:103C70001200D9CFE6FFE1CFD9FFA69EA69CA6846D
:103C8000FE0EDB50A96EFD0EDB50A86E550EA76E22
:103C9000AA0EA76EA682A69400D0E552E7CFD9FF60
:023CA000120010
:0E3CA200036A026A016A006A200EE76ED8907B
:103CB0000436053606360736003601360236033638
:103CC0000950005C0A5001580B5002580C50035820
:103CD00009E30950005E0A50015A0B50025A0C5079
:0A3CE000035A042AE72EE4D712006D
:063CEA00470EE66EE66ADB
:103CF0003C0EE66EFCEC1CF0E552E552E552AD0ED2
:103D0000146E380E156E166A14C0E6FF15C0E6FF75
:103D100016C0E6FFB0EC1CF0E552E552E55200D0CB
:023D200012008F
:0E3D2200FF0EE350256EEF0E01D0F30EE76E9C
:103D3000E72E98EF1EF00C0E246EE76AE72E9EEF3A
:103D40001EF0242E9DEF1EF0252E96EF1EF0120081
:103D5000D9CFE6FFDACFE6FFE1CFD9FFE2CFDAFF36
:103D6000C30EC214146EFD0EDB407F0B3C0B14100F
:0E3D7000C26EE552E5CFDAFFE7CFD9FF1200B1
:023D7E00F36AE6
:103D8000F46AFF0EE124E96EFF0EE220EA6EED66B2
:103D900007D02F0EEF6404D03A0EEF6001D0F32A63
:023DA00012000F
:0E3DA20015EE00F025EE00F0F86A0F9C61ECC3
:0E3DB0001CF00DEC1FF029EC1BF0FBD71200ED
:023DBE00FF0EF6
:103DC000E350ACBA04D0AF6AAB8EAC8A949CACA280
:0A3DD000FED7AD6EF36EF46A120028
:063DDA00C450176E166ACA
:0C3DE000C3501610F36E17C0F4FF120061
:043DEC00303132330D
:0D3DF000343536373839616263646566002A
:023DFE0000EED5
:0C3E000000F00D0EEE6AEA62FDD7120021
:043E0C00C250020B93
:063E100001E0010E1200AA
:043E1600C282120052
:023E1A00120094
:023E1C00FEFFA7
:023E1E000000A2
:0B3E200000000000000000000000FF98
:020000040030CA
:0100010002FC
:010002001FDE
:010003001EDE
:010006008178
:00000001FF
